:020000020000FC
:100000000C9446000C94D2000C94D2000C94D200B4
:100010000C94D2000C94D2000C94D2000C94D20018
:100020000C94D2000C94D2000C94D2000C94D20008
:100030000C94D2000C94D2000C94D2000C94890041
:100040000C94D2000C94D2000C94D2000C94D200E8
:100050000C94D2000C94D2000C94D2000C94D200D8
:100060000C94D2000C94D2000C94D2000C94D200C8
:100070000C94D2000C94D2000C94D2000C94D200B8
:100080000C94D2000C94D2000C94D2000FEF0DBF50
:1000900000E10EBF0FEF04BB00E0009364000FEF20
:1000A0000093650030916300317000E002B90FEFFA
:1000B00003B900E007BB0FEF08BB00E0009361004D
:1000C00003E607B907EE06B940E04093000259E1A4
:1000D0000FE003BF0CE601BF02E007BF7894209158
:1000E00063002170022F032719F4322F0C946F0044
:1000F000A0E0B1E000E005BB20FF0C9481000C946F
:10010000860000E0009300020C94750040E00C941F
:1001100075000F930FB70F93009101020A9500939A
:100120000102E9F5052F0093010220FF0C949A00CB
:100130000C94BB0059E101B116B307FB02F906FBB1
:1001400001F905FB00F917FB03F91FEF01270F70F9
:1001500010910002139561F0109300020D930F931C
:1001600015B30FEF1027107F0F91012B0C94CE00C9
:100170000FEF0C94CE0005B1007E06950695039511
:10018000502F0D91439510910002141B11F00C9407
:10019000CE00A0E0B1E040E00C94CE0005BB0F9192
:0601A0000FBF0F9118953E
:00000001FF
